{
  "contractName": "CompanyContractRegistry",
  "abi": [
    {
      "anonymous": false,
      "inputs": [
        {
          "indexed": true,
          "name": "hash",
          "type": "bytes32"
        },
        {
          "indexed": false,
          "name": "companyName",
          "type": "string"
        },
        {
          "indexed": false,
          "name": "duration",
          "type": "uint256"
        },
        {
          "indexed": false,
          "name": "timestamp",
          "type": "uint256"
        }
      ],
      "name": "ContractRegistered",
      "type": "event"
    },
    {
      "constant": false,
      "inputs": [
        {
          "name": "companyName",
          "type": "string"
        },
        {
          "name": "duration",
          "type": "uint256"
        }
      ],
      "name": "registerContract",
      "outputs": [],
      "payable": false,
      "stateMutability": "nonpayable",
      "type": "function"
    },
    {
      "constant": true,
      "inputs": [
        {
          "name": "hash",
          "type": "bytes32"
        }
      ],
      "name": "getContractInfo",
      "outputs": [
        {
          "name": "",
          "type": "string"
        },
        {
          "name": "",
          "type": "uint256"
        },
        {
          "name": "",
          "type": "uint256"
        }
      ],
      "payable": false,
      "stateMutability": "view",
      "type": "function"
    }
  ],
  "bytecode": "0x608060405234801561001057600080fd5b506106b6806100206000396000f3fe608060405260043610610046576000357c01000000000000000000000000000000000000000000000000000000009004806331b046c51461004b578063613e2de2146100db575b600080fd5b34801561005757600080fd5b506100d96004803603604081101561006e57600080fd5b810190808035906020019064010000000081111561008b57600080fd5b82018360208201111561009d57600080fd5b803590602001918460018302840111640100000000831117156100bf57600080fd5b90919293919293908035906020019092919050505061019d565b005b3480156100e757600080fd5b50610114600480360360208110156100fe57600080fd5b81019080803590602001909291905050506103a3565b6040518080602001848152602001838152602001828103825285818151815260200191508051906020019080838360005b83811015610160578082015181840152602081019050610145565b50505050905090810190601f16801561018d5780820380516001836020036101000a031916815260200191505b5094505050505060405180910390f35b600042905060006101f385858080601f016020809104026020016040519081016040528093929190818152602001838380828437600081840152601f19601f820116905080830192505050505050508484610534565b9050600080600083815260200190815260200160002060020154141515610282576040517f08c379a000000000000000000000000000000000000000000000000000000000815260040180806020018281038252601b8152602001807f436f6e747261637420616c72656164792072656769737465726564000000000081525060200191505060405180910390fd5b60606040519081016040528086868080601f016020809104026020016040519081016040528093929190818152602001838380828437600081840152601f19601f8201169050808301925050505050505081526020018481526020018381525060008083815260200190815260200160002060008201518160000190805190602001906103109291906105c3565b506020820151816001015560408201518160020155905050807feff5b3206da70c4e6bfc0048da6bcad5683cccc0a559c63f3e4ff94ad4a297038686868660405180806020018481526020018381526020018281038252868682818152602001925080828437600081840152601f19601f8201169050808301925050509550505050505060405180910390a25050505050565b606060008060008060008681526020019081526020016000206002015414151515610436576040517f08c379a00000000000000000000000000000000000000000000000000000000081526004018080602001828103825260128152602001807f436f6e7472616374206e6f7420666f756e64000000000000000000000000000081525060200191505060405180910390fd5b61043e610643565b60008086815260200190815260200160002060606040519081016040529081600082018054600181600116156101000203166002900480601f0160208091040260200160405190810160405280929190818152602001828054600181600116156101000203166002900480156104f55780601f106104ca576101008083540402835291602001916104f5565b820191906000526020600020905b8154815290600101906020018083116104d857829003601f168201915b50505050508152602001600182015481526020016002820154815250509050806000015181602001518260400151829250935093509350509193909250565b60008383836040516020018084805190602001908083835b602083101515610571578051825260208201915060208101905060208303925061054c565b6001836020036101000a03801982511681845116808217855250505050505090500183815260200182815260200193505050506040516020818303038152906040528051906020012090509392505050565b828054600181600116156101000203166002900490600052602060002090601f016020900481019282601f1061060457805160ff1916838001178555610632565b82800160010185558215610632579182015b82811115610631578251825591602001919060010190610616565b5b50905061063f9190610665565b5090565b6060604051908101604052806060815260200160008152602001600081525090565b61068791905b8082111561068357600081600090555060010161066b565b5090565b9056fea165627a7a7230582076405bfbda2b6e73f2e933cae59f925628da28fb256dd4ca1fdef64c17d8791b0029",
  "source": "// SPDX-License-Identifier: MIT\r\npragma solidity >=0.4.22 <0.9.0;\r\n\r\ncontract CompanyContractRegistry {\r\n    struct CompanyInfo {\r\n        string companyName;\r\n        uint256 duration;\r\n        uint256 timestamp;\r\n    }\r\n\r\n    mapping(bytes32 => CompanyInfo) private contracts;\r\n\r\n    event ContractRegistered(bytes32 indexed hash, string companyName, uint256 duration, uint256 timestamp);\r\n\r\n    function registerContract(string calldata companyName, uint256 duration) external {\r\n        uint256 timestamp = block.timestamp;\r\n        bytes32 hash = generateHash(companyName, duration, timestamp);\r\n\r\n        require(contracts[hash].timestamp == 0, \"Contract already registered\");\r\n\r\n        contracts[hash] = CompanyInfo(companyName, duration, timestamp);\r\n\r\n        emit ContractRegistered(hash, companyName, duration, timestamp);\r\n    }\r\n\r\n    function getContractInfo(bytes32 hash) external view returns (string memory, uint256, uint256) {\r\n        require(contracts[hash].timestamp != 0, \"Contract not found\");\r\n        CompanyInfo memory info = contracts[hash];\r\n        return (info.companyName, info.duration, info.timestamp);\r\n    }\r\n\r\n    function generateHash(string memory companyName, uint256 duration, uint256 timestamp) internal pure returns (bytes32) {\r\n        return keccak256(abi.encodePacked(companyName, duration, timestamp));\r\n    }\r\n}\r\n",
  "sourcePath": "C:\\xampp\\htdocs\\b\\contracts\\CompanyContractRegistry.sol",
  "compiler": {
    "name": "solc",
    "version": "0.5.1+commit.c8a2cb62.Emscripten.clang"
  },
  "schemaVersion": "3.4.15",
  "updatedAt": "2023-08-17T04:37:13.526Z",
  "devdoc": {
    "methods": {}
  },
  "userdoc": {
    "methods": {}
  }
}