{
  "contractName": "Store",
  "abi": [
    {
      "anonymous": false,
      "inputs": [
        {
          "indexed": true,
          "internalType": "address",
          "name": "user",
          "type": "address"
        },
        {
          "indexed": false,
          "internalType": "bytes32",
          "name": "dataHash",
          "type": "bytes32"
        }
      ],
      "name": "DataStored",
      "type": "event"
    },
    {
      "inputs": [
        {
          "internalType": "string",
          "name": "newName",
          "type": "string"
        },
        {
          "internalType": "uint256",
          "name": "newNumber",
          "type": "uint256"
        }
      ],
      "name": "storeData",
      "outputs": [],
      "stateMutability": "nonpayable",
      "type": "function"
    },
    {
      "inputs": [
        {
          "internalType": "address",
          "name": "user",
          "type": "address"
        }
      ],
      "name": "getData",
      "outputs": [
        {
          "internalType": "string",
          "name": "",
          "type": "string"
        },
        {
          "internalType": "uint256",
          "name": "",
          "type": "uint256"
        },
        {
          "internalType": "uint256",
          "name": "",
          "type": "uint256"
        },
        {
          "internalType": "bytes32",
          "name": "",
          "type": "bytes32"
        }
      ],
      "stateMutability": "view",
      "type": "function"
    }
  ],
  "bytecode": "0x608060405234801561001057600080fd5b506107f2806100206000396000f3fe608060405234801561001057600080fd5b50600436106100365760003560e01c806338266b221461003b578063bf1029991461006e575b600080fd5b61005560048036038101906100509190610476565b61008a565b604051610065949392919061056e565b60405180910390f35b6100886004803603810190610083919061064b565b610221565b005b60606000806000806000808773ffffffffffffffffffffffffffffffffffffffff1673ffffffffffffffffffffffffffffffffffffffff168152602001908152602001600020905060006101738260000180546100e6906106da565b80601f0160208091040260200160405190810160405280929190818152602001828054610112906106da565b801561015f5780601f106101345761010080835404028352916020019161015f565b820191906000526020600020905b81548152906001019060200180831161014257829003601f168201915b505050505083600101548460020154610335565b9050816000018260010154836002015483838054610190906106da565b80601f01602080910402602001604051908101604052809291908181526020018280546101bc906106da565b80156102095780601f106101de57610100808354040283529160200191610209565b820191906000526020600020905b8154815290600101906020018083116101ec57829003601f168201915b50505050509350955095509550955050509193509193565b60008060003373ffffffffffffffffffffffffffffffffffffffff1673ffffffffffffffffffffffffffffffffffffffff1681526020019081526020016000209050838382600001919061027692919061036b565b5081816001018190555042816002018190555060006102de85858080601f016020809104026020016040519081016040528093929190818152602001838380828437600081840152601f19601f82011690508083019250505050505050848460020154610335565b90503373ffffffffffffffffffffffffffffffffffffffff167fa7ebd12e985dcdefed58f75386b8b8f6b785a733e5275a0ae2c4152095f58c0582604051610326919061070b565b60405180910390a25050505050565b600083838360405160200161034c93929190610783565b6040516020818303038152906040528051906020012090509392505050565b828054610377906106da565b90600052602060002090601f01602090048101928261039957600085556103e0565b82601f106103b257803560ff19168380011785556103e0565b828001600101855582156103e0579182015b828111156103df5782358255916020019190600101906103c4565b5b5090506103ed91906103f1565b5090565b5b8082111561040a5760008160009055506001016103f2565b5090565b600080fd5b600080fd5b600073ffffffffffffffffffffffffffffffffffffffff82169050919050565b600061044382610418565b9050919050565b61045381610438565b811461045e57600080fd5b50565b6000813590506104708161044a565b92915050565b60006020828403121561048c5761048b61040e565b5b600061049a84828501610461565b91505092915050565b600081519050919050565b600082825260208201905092915050565b60005b838110156104dd5780820151818401526020810190506104c2565b838111156104ec576000848401525b50505050565b6000601f19601f8301169050919050565b600061050e826104a3565b61051881856104ae565b93506105288185602086016104bf565b610531816104f2565b840191505092915050565b6000819050919050565b61054f8161053c565b82525050565b6000819050919050565b61056881610555565b82525050565b600060808201905081810360008301526105888187610503565b90506105976020830186610546565b6105a46040830185610546565b6105b1606083018461055f565b95945050505050565b600080fd5b600080fd5b600080fd5b60008083601f8401126105df576105de6105ba565b5b8235905067ffffffffffffffff8111156105fc576105fb6105bf565b5b602083019150836001820283011115610618576106176105c4565b5b9250929050565b6106288161053c565b811461063357600080fd5b50565b6000813590506106458161061f565b92915050565b6000806000604084860312156106645761066361040e565b5b600084013567ffffffffffffffff81111561068257610681610413565b5b61068e868287016105c9565b935093505060206106a186828701610636565b9150509250925092565b7f4e487b7100000000000000000000000000000000000000000000000000000000600052602260045260246000fd5b600060028204905060018216806106f257607f821691505b602082108103610705576107046106ab565b5b50919050565b6000602082019050610720600083018461055f565b92915050565b600081905092915050565b600061073c826104a3565b6107468185610726565b93506107568185602086016104bf565b80840191505092915050565b6000819050919050565b61077d6107788261053c565b610762565b82525050565b600061078f8286610731565b915061079b828561076c565b6020820191506107ab828461076c565b60208201915081905094935050505056fea264697066735822122084e19cb9eaaf726e5f842ad199dc4a08818492848df794b5ee7e6bf6e7f8b3aa64736f6c634300080d0033",
  "immutableReferences": {},
  "source": "// SPDX-License-Identifier: MIT\r\npragma solidity >=0.4.25 <0.9.0;\r\n\r\ncontract Store {\r\n    struct Data {\r\n        string name;\r\n        uint256 number;\r\n        uint256 timestamp;\r\n    }\r\n\r\n    mapping(address => Data) private userToData;\r\n\r\n    event DataStored(address indexed user, bytes32 dataHash);\r\n\r\n    function storeData(string calldata newName, uint256 newNumber) external {\r\n        Data storage userData = userToData[msg.sender];\r\n        userData.name = newName;\r\n        userData.number = newNumber;\r\n        userData.timestamp = block.timestamp;\r\n\r\n        bytes32 dataHash = calculateDataHash(newName, newNumber, userData.timestamp);\r\n        emit DataStored(msg.sender, dataHash);\r\n    }\r\n\r\n    function calculateDataHash(string memory newName, uint256 newNumber, uint256 timestamp) internal pure returns (bytes32) {\r\n        return keccak256(abi.encodePacked(newName, newNumber, timestamp));\r\n    }\r\n\r\n    function getData(address user) external view returns (string memory, uint256, uint256, bytes32) {\r\n        Data storage userData = userToData[user];\r\n        bytes32 dataHash = calculateDataHash(userData.name, userData.number, userData.timestamp);\r\n        return (userData.name, userData.number, userData.timestamp, dataHash);\r\n    }\r\n}\r\n",
  "sourcePath": "C:\\xampp\\htdocs\\BLOCKCHAIN_GELO\\contracts\\Store.sol",
  "compiler": {
    "name": "solc",
    "version": "0.8.13+commit.abaa5c0e.Emscripten.clang"
  },
  "schemaVersion": "3.4.15",
  "updatedAt": "2023-08-21T03:44:04.268Z",
  "devdoc": {
    "kind": "dev",
    "methods": {},
    "version": 1
  },
  "userdoc": {
    "kind": "user",
    "methods": {},
    "version": 1
  }
}